{
  "address": "0x5FbDB2315678afecb367f032d93F642f64180aa3",
  "abi": [
    {
      "inputs": [
        {
          "internalType": "int32",
          "name": "number",
          "type": "int32"
        },
        {
          "internalType": "uint32",
          "name": "wordSize",
          "type": "uint32"
        }
      ],
      "name": "int32SignExtension",
      "outputs": [
        {
          "internalType": "int32",
          "name": "",
          "type": "int32"
        }
      ],
      "stateMutability": "pure",
      "type": "function"
    },
    {
      "inputs": [
        {
          "internalType": "uint32",
          "name": "num",
          "type": "uint32"
        }
      ],
      "name": "uint32SwapEndian",
      "outputs": [
        {
          "internalType": "uint32",
          "name": "",
          "type": "uint32"
        }
      ],
      "stateMutability": "pure",
      "type": "function"
    },
    {
      "inputs": [
        {
          "internalType": "uint64",
          "name": "number",
          "type": "uint64"
        },
        {
          "internalType": "uint64",
          "name": "wordSize",
          "type": "uint64"
        }
      ],
      "name": "uint64SignExtension",
      "outputs": [
        {
          "internalType": "uint64",
          "name": "",
          "type": "uint64"
        }
      ],
      "stateMutability": "pure",
      "type": "function"
    },
    {
      "inputs": [
        {
          "internalType": "uint64",
          "name": "num",
          "type": "uint64"
        }
      ],
      "name": "uint64SwapEndian",
      "outputs": [
        {
          "internalType": "uint64",
          "name": "",
          "type": "uint64"
        }
      ],
      "stateMutability": "pure",
      "type": "function"
    }
  ],
  "transactionHash": "0x4480883581e4ca737ada80ce43e40f7cb679737b437352d22b47fe9eb5419aff",
  "args": [],
  "numDeployments": 1,
  "bytecode": "0x6102a3610026600b82828239805160001a60731461001957fe5b30600052607381538281f3fe73000000000000000000000000000000000000000030146080604052600436106100565760003560e01c8063240034ec1461005b578063bf1924c514610097578063ef7c7949146100db578063f69c389b1461010a575b600080fd5b61007e6004803603602081101561007157600080fd5b503563ffffffff1661014d565b6040805163ffffffff9092168252519081900360200190f35b6100be600480360360208110156100ad57600080fd5b503567ffffffffffffffff1661017a565b6040805167ffffffffffffffff9092168252519081900360200190f35b6100be600480360360408110156100f157600080fd5b5067ffffffffffffffff813581169160200135166101f3565b6101366004803603604081101561012057600080fd5b50803560030b906020013563ffffffff16610234565b6040805160039290920b8252519081900360200190f35b601881811b63ff00000016600883811c61ff00169084901b62ff0000169390921c60ff1692909217171790565b603881811b67ff0000000000000016602883811b66ff0000000000001691909117601884811b65ff00000000001691909117600885811b64ff00000000169190911763ff0000009186901c919091161762ff00009185901c919091161761ff009184901c919091161760ff9183901c9190911617919050565b600082600167ffffffffffffffff60001980860182169290921b831681161580159291861660020a9091019061022a578019831792505b5090949350505050565b600082600160001980850163ffffffff9081169290921b8316821615801592861660020a9091019061022a57199190911794935050505056fea2646970667358221220554b780a0f2987c7a175ec0bdca577f4865347764042c6d3d8629a9e15c3e36b64736f6c63430007040033",
  "devdoc": {
    "author": "Felipe Argento / Stephen Chen",
    "kind": "dev",
    "methods": {
      "int32SignExtension(int32,uint32)": {
        "params": {
          "number": "signed number to be extended",
          "wordSize": "number of bits of the signed number, ie, 8 for int8"
        }
      },
      "uint32SwapEndian(uint32)": {
        "params": {
          "num": "number to have bytes swapped"
        }
      },
      "uint64SignExtension(uint64,uint64)": {
        "params": {
          "number": "signed number to be extended",
          "wordSize": "number of bits of the signed number, ie, 8 for int8"
        }
      },
      "uint64SwapEndian(uint64)": {
        "params": {
          "num": "number to have bytes swapped"
        }
      }
    },
    "title": "Bits Manipulation Library",
    "version": 1
  },
  "userdoc": {
    "kind": "user",
    "methods": {
      "int32SignExtension(int32,uint32)": {
        "notice": "Sign extend a shorter signed value to the full int32"
      },
      "uint32SwapEndian(uint32)": {
        "notice": "Swap byte order of unsigned ints with 32 bytes"
      },
      "uint64SignExtension(uint64,uint64)": {
        "notice": "Sign extend a shorter signed value to the full uint64"
      },
      "uint64SwapEndian(uint64)": {
        "notice": "Swap byte order of unsigned ints with 64 bytes"
      }
    },
    "notice": "Implements bit manipulation helper functions",
    "version": 1
  }
}