{
  "address": "0x6BE12696d3f34919a15472d11Fe59Bc6509042db",
  "abi": [
    {
      "anonymous": false,
      "inputs": [
        {
          "indexed": false,
          "internalType": "address",
          "name": "ERC1155",
          "type": "address"
        },
        {
          "indexed": false,
          "internalType": "address",
          "name": "operator",
          "type": "address"
        },
        {
          "indexed": false,
          "internalType": "address",
          "name": "sender",
          "type": "address"
        },
        {
          "indexed": false,
          "internalType": "uint256[]",
          "name": "tokenIds",
          "type": "uint256[]"
        },
        {
          "indexed": false,
          "internalType": "uint256[]",
          "name": "tokenAmounts",
          "type": "uint256[]"
        },
        {
          "indexed": false,
          "internalType": "bytes",
          "name": "data",
          "type": "bytes"
        }
      ],
      "name": "ERC1155BatchReceived",
      "type": "event"
    },
    {
      "anonymous": false,
      "inputs": [
        {
          "indexed": false,
          "internalType": "address",
          "name": "ERC1155",
          "type": "address"
        },
        {
          "indexed": false,
          "internalType": "address payable",
          "name": "receiver",
          "type": "address"
        },
        {
          "indexed": false,
          "internalType": "uint256[]",
          "name": "tokenIds",
          "type": "uint256[]"
        },
        {
          "indexed": false,
          "internalType": "uint256[]",
          "name": "amounts",
          "type": "uint256[]"
        },
        {
          "indexed": false,
          "internalType": "bytes",
          "name": "data",
          "type": "bytes"
        }
      ],
      "name": "ERC1155BatchWithdrawn",
      "type": "event"
    },
    {
      "anonymous": false,
      "inputs": [
        {
          "indexed": false,
          "internalType": "address",
          "name": "ERC1155",
          "type": "address"
        },
        {
          "indexed": false,
          "internalType": "address",
          "name": "operator",
          "type": "address"
        },
        {
          "indexed": false,
          "internalType": "address",
          "name": "sender",
          "type": "address"
        },
        {
          "indexed": false,
          "internalType": "uint256",
          "name": "tokenId",
          "type": "uint256"
        },
        {
          "indexed": false,
          "internalType": "uint256",
          "name": "tokenAmount",
          "type": "uint256"
        },
        {
          "indexed": false,
          "internalType": "bytes",
          "name": "data",
          "type": "bytes"
        }
      ],
      "name": "ERC1155Received",
      "type": "event"
    },
    {
      "anonymous": false,
      "inputs": [
        {
          "indexed": false,
          "internalType": "address",
          "name": "ERC1155",
          "type": "address"
        },
        {
          "indexed": false,
          "internalType": "address payable",
          "name": "receiver",
          "type": "address"
        },
        {
          "indexed": false,
          "internalType": "uint256",
          "name": "tokenId",
          "type": "uint256"
        },
        {
          "indexed": false,
          "internalType": "uint256",
          "name": "amount",
          "type": "uint256"
        },
        {
          "indexed": false,
          "internalType": "bytes",
          "name": "data",
          "type": "bytes"
        }
      ],
      "name": "ERC1155Withdrawn",
      "type": "event"
    },
    {
      "inputs": [
        {
          "internalType": "bytes",
          "name": "_data",
          "type": "bytes"
        }
      ],
      "name": "erc1155BatchWithdrawal",
      "outputs": [
        {
          "internalType": "bool",
          "name": "",
          "type": "bool"
        }
      ],
      "stateMutability": "nonpayable",
      "type": "function"
    },
    {
      "inputs": [
        {
          "internalType": "bytes",
          "name": "_data",
          "type": "bytes"
        }
      ],
      "name": "erc1155Withdrawal",
      "outputs": [
        {
          "internalType": "bool",
          "name": "",
          "type": "bool"
        }
      ],
      "stateMutability": "nonpayable",
      "type": "function"
    },
    {
      "inputs": [
        {
          "internalType": "address",
          "name": "_operator",
          "type": "address"
        },
        {
          "internalType": "address",
          "name": "_from",
          "type": "address"
        },
        {
          "internalType": "uint256[]",
          "name": "_tokenIds",
          "type": "uint256[]"
        },
        {
          "internalType": "uint256[]",
          "name": "_tokenAmounts",
          "type": "uint256[]"
        },
        {
          "internalType": "bytes",
          "name": "_data",
          "type": "bytes"
        }
      ],
      "name": "onERC1155BatchReceived",
      "outputs": [
        {
          "internalType": "bytes4",
          "name": "",
          "type": "bytes4"
        }
      ],
      "stateMutability": "nonpayable",
      "type": "function"
    },
    {
      "inputs": [
        {
          "internalType": "address",
          "name": "_operator",
          "type": "address"
        },
        {
          "internalType": "address",
          "name": "_from",
          "type": "address"
        },
        {
          "internalType": "uint256",
          "name": "_tokenId",
          "type": "uint256"
        },
        {
          "internalType": "uint256",
          "name": "_tokenAmount",
          "type": "uint256"
        },
        {
          "internalType": "bytes",
          "name": "_data",
          "type": "bytes"
        }
      ],
      "name": "onERC1155Received",
      "outputs": [
        {
          "internalType": "bytes4",
          "name": "",
          "type": "bytes4"
        }
      ],
      "stateMutability": "nonpayable",
      "type": "function"
    }
  ],
  "transactionHash": "0xc0b20745fc1ed8c04719a2ce9d9b5e96626b1c12d26ce1f19394d4a5788f4efe",
  "args": [],
  "numDeployments": 1,
  "solcInputHash": "dddd641f7a3f4461e4ff41e8a19645a9",
  "bytecode": "0x608060405234801561001057600080fd5b50611051806100206000396000f3fe608060405234801561001057600080fd5b506004361061004c5760003560e01c806325ce6e95146100515780638c35926314610079578063bc197c811461008c578063f23a6e61146100b8575b600080fd5b61006461005f366004610842565b6100cb565b60405190151581526020015b60405180910390f35b610064610087366004610842565b6101e4565b61009f61009a3660046108e1565b6102e1565b6040516001600160e01b03199091168152602001610070565b61009f6100c63660046109a0565b6103c9565b600033301461010f5760405162461bcd60e51b815260206004820152600b60248201526a37b7363c9034ba39b2b63360a91b60448201526064015b60405180910390fd5b60008080808061012187890189610ad3565b604051637921219560e11b81529499509297509095509350915085906001600160a01b0382169063f242432a906101649030908990899089908990600401610b96565b600060405180830381600087803b15801561017e57600080fd5b505af1158015610192573d6000803e3d6000fd5b505050507f73801e57e11a7b77c97a2f5fbe3561cd83e96b5976d95bd22902367de0ca9ce686868686866040516101cd959493929190610b96565b60405180910390a150600198975050505050505050565b60003330146102235760405162461bcd60e51b815260206004820152600b60248201526a37b7363c9034ba39b2b63360a91b6044820152606401610106565b60008080808061023587890189610c50565b604051631759616b60e11b81529499509297509095509350915085906001600160a01b03821690632eb2c2d6906102789030908990899089908990600401610d2c565b600060405180830381600087803b15801561029257600080fd5b505af11580156102a6573d6000803e3d6000fd5b505050507f7cd272a48dca17a8f404682ce51ba18d2ec2ee1abf53d387dbbf84c86a482cee86868686866040516101cd959493929190610d2c565b6040516000907f943d5d24442f02461445e15c5d7d4a4ef0acb0d32c5d6f6af37a6882249912ff903390839061034d907f478494c6565083f3ed97b6c6d8247fde8de3bf8b5c905a40aba9c9dd613a7a4e9084908f908f908f908f908f908f908f908f90602001610de9565b60408051601f19818403018152919052905061036983826104a7565b507f9413f1bebf2c3d0b8f8b36f93bcab5e7b487c554a27383a244918d365dd958a2828d8d8d8d8d8d8d8d6040516103a999989796959493929190610e5d565b60405180910390a15063bc197c8160e01b9b9a5050505050505050505050565b6040516000907f943d5d24442f02461445e15c5d7d4a4ef0acb0d32c5d6f6af37a6882249912ff9033908390610431907f478494c6565083f3ed97b6c6d8247fde8de3bf8b5c905a40aba9c9dd613a7a4e9084908d908d908d908d908d908d90602001610eca565b60408051601f19818403018152919052905061044d83826104a7565b507f0e2691993fdd84440b8e3e2fef1888408bcf77bdff97325796c776218fc14540828b8b8b8b8b8b6040516104899796959493929190610f21565b60405180910390a15063f23a6e6160e01b9998505050505050505050565b60006104b48383306104bb565b9392505050565b600283015482516000917fd32d7f90491bee81172a406b65f3270d810392fe53bb0379dde8bdd4e624189c9111156105355760405162461bcd60e51b815260206004820152601860248201527f696e707574206c656e3a205b302c647269766553697a655d00000000000000006044820152606401610106565b61053e81610660565b1561054c5761054c85610738565b600085600301546000146105635785600101610565565b855b9050600061057283610757565b8254604080516001600160a01b03891660208083019190915243828401524260608301526080820185905260a08083018590528351808403909101815260c0830184528051908201208b518c83012060e084018290526101008085018290528551808603909101815261012090940190945282519282019290922060018086018955600089815292909220909401849055865494955090939192916106179190610f87565b847fa15a0da5519c084484141aaa73e525cee96062f5decc97e070f0c4da27738bc78a428d60405161064b93929190610f9e565b60405180910390a39998505050505050505050565b60018101546000908190600160801b900463ffffffff16600281111561068857610688610fc5565b600184015490915063ffffffff6801000000000000000082048116911660008360028111156106b9576106b9610fc5565b1480156106ce57506106cb8183610fdb565b42115b1561072d576001858101805463ffffffff60801b1916600160801b1790556040517fed606d544c2202d032d2626c390923e6f260ca5d89625bba0cfe70d2bdda4e8f9161071a91610ff3565b60405180910390a1506001949350505050565b506000949350505050565b60038101541561074957600061074c565b60015b60ff16600390910155565b7f0635ad75fae4d4e8d896461a635d23700076a1c3fd8da26276f18cb1c09ea5675460018201546000917f0635ad75fae4d4e8d896461a635d23700076a1c3fd8da26276f18cb1c09ea566918390600160801b900463ffffffff1660028111156107c3576107c3610fc5565b905060008160028111156107d9576107d9610fc5565b146107ee576107e9826001610fdb565b6107f0565b815b95945050505050565b60008083601f84011261080b57600080fd5b50813567ffffffffffffffff81111561082357600080fd5b60208301915083602082850101111561083b57600080fd5b9250929050565b6000806020838503121561085557600080fd5b823567ffffffffffffffff81111561086c57600080fd5b610878858286016107f9565b90969095509350505050565b6001600160a01b038116811461089957600080fd5b50565b60008083601f8401126108ae57600080fd5b50813567ffffffffffffffff8111156108c657600080fd5b6020830191508360208260051b850101111561083b57600080fd5b60008060008060008060008060a0898b0312156108fd57600080fd5b883561090881610884565b9750602089013561091881610884565b9650604089013567ffffffffffffffff8082111561093557600080fd5b6109418c838d0161089c565b909850965060608b013591508082111561095a57600080fd5b6109668c838d0161089c565b909650945060808b013591508082111561097f57600080fd5b5061098c8b828c016107f9565b999c989b5096995094979396929594505050565b60008060008060008060a087890312156109b957600080fd5b86356109c481610884565b955060208701356109d481610884565b94506040870135935060608701359250608087013567ffffffffffffffff8111156109fe57600080fd5b610a0a89828a016107f9565b979a9699509497509295939492505050565b634e487b7160e01b600052604160045260246000fd5b604051601f8201601f1916810167ffffffffffffffff81118282101715610a5b57610a5b610a1c565b604052919050565b600082601f830112610a7457600080fd5b813567ffffffffffffffff811115610a8e57610a8e610a1c565b610aa1601f8201601f1916602001610a32565b818152846020838601011115610ab657600080fd5b816020850160208301376000918101602001919091529392505050565b600080600080600060a08688031215610aeb57600080fd5b8535610af681610884565b94506020860135610b0681610884565b93506040860135925060608601359150608086013567ffffffffffffffff811115610b3057600080fd5b610b3c88828901610a63565b9150509295509295909350565b6000815180845260005b81811015610b6f57602081850181015186830182015201610b53565b81811115610b81576000602083870101525b50601f01601f19169290920160200192915050565b6001600160a01b03868116825285166020820152604081018490526060810183905260a060808201819052600090610bd090830184610b49565b979650505050505050565b600082601f830112610bec57600080fd5b8135602067ffffffffffffffff821115610c0857610c08610a1c565b8160051b610c17828201610a32565b9283528481018201928281019087851115610c3157600080fd5b83870192505b84831015610bd057823582529183019190830190610c37565b600080600080600060a08688031215610c6857600080fd5b8535610c7381610884565b94506020860135610c8381610884565b9350604086013567ffffffffffffffff80821115610ca057600080fd5b610cac89838a01610bdb565b94506060880135915080821115610cc257600080fd5b610cce89838a01610bdb565b93506080880135915080821115610ce457600080fd5b50610b3c88828901610a63565b600081518084526020808501945080840160005b83811015610d2157815187529582019590820190600101610d05565b509495945050505050565b6001600160a01b0386811682528516602082015260a060408201819052600090610d5890830186610cf1565b8281036060840152610d6a8186610cf1565b90508281036080840152610d7e8185610b49565b98975050505050505050565b81835260006001600160fb1b03831115610da357600080fd5b8260051b8083602087013760009401602001938452509192915050565b81835281816020850137506000828201602090810191909152601f909101601f19169091010190565b8a81526001600160a01b038a8116602083015289811660408301528816606082015260e060808201819052600090610e24908301888a610d8a565b82810360a0840152610e37818789610d8a565b905082810360c0840152610e4c818587610dc0565b9d9c50505050505050505050505050565b6001600160a01b038a8116825289811660208301528816604082015260c060608201819052600090610e92908301888a610d8a565b8281036080840152610ea5818789610d8a565b905082810360a0840152610eba818587610dc0565b9c9b505050505050505050505050565b8881526001600160a01b0388811660208301528781166040830152861660608201526080810185905260a0810184905260e060c08201819052600090610f139083018486610dc0565b9a9950505050505050505050565b6001600160a01b038881168252878116602083015286166040820152606081018590526080810184905260c060a08201819052600090610f649083018486610dc0565b9998505050505050505050565b634e487b7160e01b600052601160045260246000fd5b600082821015610f9957610f99610f71565b500390565b60018060a01b03841681528260208201526060604082015260006107f06060830184610b49565b634e487b7160e01b600052602160045260246000fd5b60008219821115610fee57610fee610f71565b500190565b602081016003831061101557634e487b7160e01b600052602160045260246000fd5b9190529056fea2646970667358221220e063159814f331bcc2f211faeb3c6caf6a8ff0f6621cb1d075bdf94e9ad844e964736f6c634300080d0033",
  "devdoc": {
    "kind": "dev",
    "methods": {
      "erc1155BatchWithdrawal(bytes)": {
        "details": "can only be called by the Rollups contract",
        "params": {
          "_data": "data with withdrawal information"
        }
      },
      "erc1155Withdrawal(bytes)": {
        "details": "can only be called by the Rollups contract",
        "params": {
          "_data": "data with withdrawal information"
        }
      },
      "onERC1155BatchReceived(address,address,uint256[],uint256[],bytes)": {
        "details": "The ERC1155 smart contract calls this function on the recipient  after a `transfer`. This function MAY throw to revert and reject the  transfer. Return of other than the magic value MUST result in the  transaction being reverted.  Note: the contract address is always the message sender.",
        "params": {
          "_data": "Additional data to be interpreted by L2",
          "_from": "The address which previously owned the tokens",
          "_operator": "The address which called `safeBatchTransferFrom` function",
          "_tokenAmounts": "The token amounts which are being transferred",
          "_tokenIds": "The token identifiers which are being transferred"
        },
        "returns": {
          "_0": "this function selector unless throwing"
        }
      },
      "onERC1155Received(address,address,uint256,uint256,bytes)": {
        "details": "The ERC1155 smart contract calls this function on the recipient  after a `transfer`. This function MAY throw to revert and reject the  transfer. Return of other than the magic value MUST result in the  transaction being reverted.  Note: the contract address is always the message sender.",
        "params": {
          "_data": "Additional data to be interpreted by L2",
          "_from": "The address which previously owned the token",
          "_operator": "The address which called `safeTransferFrom` function",
          "_tokenAmount": "The token amount which is being transferred",
          "_tokenId": "The token identifier which is being transferred"
        },
        "returns": {
          "_0": "this function selector unless throwing"
        }
      }
    },
    "version": 1
  },
  "userdoc": {
    "events": {
      "ERC1155BatchReceived(address,address,address,uint256[],uint256[],bytes)": {
        "notice": "emitted on a call to `onERC1155BatchReceived`"
      },
      "ERC1155BatchWithdrawn(address,address,uint256[],uint256[],bytes)": {
        "notice": "emitted on ERC1155 batch withdrawal"
      },
      "ERC1155Received(address,address,address,uint256,uint256,bytes)": {
        "notice": "emitted on a call to `onERC1155Received`"
      },
      "ERC1155Withdrawn(address,address,uint256,uint256,bytes)": {
        "notice": "emitted on ERC1155 withdrawal"
      }
    },
    "kind": "user",
    "methods": {
      "erc1155BatchWithdrawal(bytes)": {
        "notice": "withdraw a batch of ERC1155 tokens from the portal"
      },
      "erc1155Withdrawal(bytes)": {
        "notice": "withdraw an ERC1155 token from the portal"
      },
      "onERC1155BatchReceived(address,address,uint256[],uint256[],bytes)": {
        "notice": "Handle the receipt of a batch of ERC1155 tokens"
      },
      "onERC1155Received(address,address,uint256,uint256,bytes)": {
        "notice": "Handle the receipt of an ERC1155 token"
      }
    },
    "version": 1
  },
  "storageLayout": {
    "storage": [],
    "types": null
  }
}